{
  "address": "0x20Cc97B90bB76820f806c70Bb7FE6FF3D1BDA0B2",
  "abi": [
    {
      "inputs": [
        {
          "internalType": "address",
          "name": "priceFeed",
          "type": "address"
        }
      ],
      "stateMutability": "nonpayable",
      "type": "constructor"
    },
    {
      "inputs": [],
      "name": "FundMe_NotEnough",
      "type": "error"
    },
    {
      "inputs": [],
      "name": "FundMe_NotOwner",
      "type": "error"
    },
    {
      "inputs": [],
      "name": "FundMe_WithdrawFail",
      "type": "error"
    },
    {
      "stateMutability": "payable",
      "type": "fallback"
    },
    {
      "inputs": [],
      "name": "MIN_USD",
      "outputs": [
        {
          "internalType": "uint256",
          "name": "",
          "type": "uint256"
        }
      ],
      "stateMutability": "view",
      "type": "function"
    },
    {
      "inputs": [],
      "name": "fund",
      "outputs": [],
      "stateMutability": "payable",
      "type": "function"
    },
    {
      "inputs": [
        {
          "internalType": "address",
          "name": "fundingAddress",
          "type": "address"
        }
      ],
      "name": "getAddressToAmountFunded",
      "outputs": [
        {
          "internalType": "uint256",
          "name": "",
          "type": "uint256"
        }
      ],
      "stateMutability": "view",
      "type": "function"
    },
    {
      "inputs": [
        {
          "internalType": "uint256",
          "name": "index",
          "type": "uint256"
        }
      ],
      "name": "getFunder",
      "outputs": [
        {
          "internalType": "address",
          "name": "",
          "type": "address"
        }
      ],
      "stateMutability": "view",
      "type": "function"
    },
    {
      "inputs": [],
      "name": "getOwner",
      "outputs": [
        {
          "internalType": "address",
          "name": "",
          "type": "address"
        }
      ],
      "stateMutability": "view",
      "type": "function"
    },
    {
      "inputs": [],
      "name": "getPriceFeed",
      "outputs": [
        {
          "internalType": "contract AggregatorV3Interface",
          "name": "",
          "type": "address"
        }
      ],
      "stateMutability": "view",
      "type": "function"
    },
    {
      "inputs": [],
      "name": "i_owner",
      "outputs": [
        {
          "internalType": "address",
          "name": "",
          "type": "address"
        }
      ],
      "stateMutability": "view",
      "type": "function"
    },
    {
      "inputs": [
        {
          "internalType": "address",
          "name": "",
          "type": "address"
        }
      ],
      "name": "s_addressToAmountFunded",
      "outputs": [
        {
          "internalType": "uint256",
          "name": "",
          "type": "uint256"
        }
      ],
      "stateMutability": "view",
      "type": "function"
    },
    {
      "inputs": [
        {
          "internalType": "uint256",
          "name": "",
          "type": "uint256"
        }
      ],
      "name": "s_funders",
      "outputs": [
        {
          "internalType": "address",
          "name": "",
          "type": "address"
        }
      ],
      "stateMutability": "view",
      "type": "function"
    },
    {
      "inputs": [],
      "name": "s_priceFeed",
      "outputs": [
        {
          "internalType": "contract AggregatorV3Interface",
          "name": "",
          "type": "address"
        }
      ],
      "stateMutability": "view",
      "type": "function"
    },
    {
      "inputs": [],
      "name": "withdraw",
      "outputs": [],
      "stateMutability": "nonpayable",
      "type": "function"
    },
    {
      "stateMutability": "payable",
      "type": "receive"
    }
  ],
  "transactionHash": "0x1a56b56aca7e3ef54f4144c05dfbab037eb68d59c2a749d9ad4c015c35cae179",
  "args": [
    "0x694AA1769357215DE4FAC081bf1f309aDC325306"
  ],
  "numDeployments": 2,
  "solcInputHash": "07d10951ea3736f0153db230fcefa07d",
  "bytecode": "0x60a060405234801561001057600080fd5b506040516200100d3803806200100d83398181016040528101906100349190610111565b3373ffffffffffffffffffffffffffffffffffffffff1660808173ffffffffffffffffffffffffffffffffffffffff1681525050806000806101000a81548173ffffffffffffffffffffffffffffffffffffffff021916908373ffffffffffffffffffffffffffffffffffffffff1602179055505061013e565b600080fd5b600073ffffffffffffffffffffffffffffffffffffffff82169050919050565b60006100de826100b3565b9050919050565b6100ee816100d3565b81146100f957600080fd5b50565b60008151905061010b816100e5565b92915050565b600060208284031215610127576101266100ae565b5b6000610135848285016100fc565b91505092915050565b608051610e9e6200016f60003960008181610457015281816106480152818161074e01526107e50152610e9e6000f3fe6080604052600436106100a05760003560e01c806354861af71161006457806354861af7146101a0578063893d20e8146101dd5780639e87a5cd14610208578063b60d428814610233578063d7b4750c1461023d578063dba6335f1461027a576100af565b80630343fb25146100b95780630ec3b027146100f65780631bf6132d14610121578063213dbea21461015e5780633ccfd60b14610189576100af565b366100af576100ad6102a5565b005b6100b76102a5565b005b3480156100c557600080fd5b506100e060048036038101906100db91906109cd565b6103c3565b6040516100ed9190610a13565b60405180910390f35b34801561010257600080fd5b5061010b61040c565b6040516101189190610a8d565b60405180910390f35b34801561012d57600080fd5b50610148600480360381019061014391906109cd565b610430565b6040516101559190610a13565b60405180910390f35b34801561016a57600080fd5b50610173610448565b6040516101809190610a13565b60405180910390f35b34801561019557600080fd5b5061019e610455565b005b3480156101ac57600080fd5b506101c760048036038101906101c29190610ad4565b61070b565b6040516101d49190610b10565b60405180910390f35b3480156101e957600080fd5b506101f261074a565b6040516101ff9190610b10565b60405180910390f35b34801561021457600080fd5b5061021d610772565b60405161022a9190610a8d565b60405180910390f35b61023b6102a5565b005b34801561024957600080fd5b50610264600480360381019061025f9190610ad4565b61079b565b6040516102719190610b10565b60405180910390f35b34801561028657600080fd5b5061028f6107e3565b60405161029c9190610b10565b60405180910390f35b6802b5e3af16b18800006102e260008054906101000a900473ffffffffffffffffffffffffffffffffffffffff163461080790919063ffffffff16565b101561031a576040517f45abd85e00000000000000000000000000000000000000000000000000000000815260040160405180910390fd5b6001339080600181540180825580915050600190039060005260206000200160009091909190916101000a81548173ffffffffffffffffffffffffffffffffffffffff021916908373ffffffffffffffffffffffffffffffffffffffff16021790555034600260003373ffffffffffffffffffffffffffffffffffffffff1673ffffffffffffffffffffffffffffffffffffffff16815260200190815260200160002081905550565b6000600260008373ffffffffffffffffffffffffffffffffffffffff1673ffffffffffffffffffffffffffffffffffffffff168152602001908152602001600020549050919050565b60008054906101000a900473ffffffffffffffffffffffffffffffffffffffff1681565b60026020528060005260406000206000915090505481565b6802b5e3af16b188000081565b7f000000000000000000000000000000000000000000000000000000000000000073ffffffffffffffffffffffffffffffffffffffff163373ffffffffffffffffffffffffffffffffffffffff16146104da576040517f10e0797900000000000000000000000000000000000000000000000000000000815260040160405180910390fd5b6000600180548060200260200160405190810160405280929190818152602001828054801561055e57602002820191906000526020600020905b8160009054906101000a900473ffffffffffffffffffffffffffffffffffffffff1673ffffffffffffffffffffffffffffffffffffffff1681526020019060010190808311610514575b5050505050905060005b81518110156105e35760006002600084848151811061058a57610589610b2b565b5b602002602001015173ffffffffffffffffffffffffffffffffffffffff1673ffffffffffffffffffffffffffffffffffffffff1681526020019081526020016000208190555080806105db90610b89565b915050610568565b50600067ffffffffffffffff8111156105ff576105fe610bd1565b5b60405190808252806020026020018201604052801561062d5781602001602082028036833780820191505090505b50600190805190602001906106439291906108c3565b5060007f000000000000000000000000000000000000000000000000000000000000000073ffffffffffffffffffffffffffffffffffffffff164760405161068a90610c31565b60006040518083038185875af1925050503d80600081146106c7576040519150601f19603f3d011682016040523d82523d6000602084013e6106cc565b606091505b5050905080610707576040517f0c3cd01000000000000000000000000000000000000000000000000000000000815260040160405180910390fd5b5050565b6001818154811061071b57600080fd5b906000526020600020016000915054906101000a900473ffffffffffffffffffffffffffffffffffffffff1681565b60007f0000000000000000000000000000000000000000000000000000000000000000905090565b60008060009054906101000a900473ffffffffffffffffffffffffffffffffffffffff16905090565b6000600182815481106107b1576107b0610b2b565b5b9060005260206000200160009054906101000a900473ffffffffffffffffffffffffffffffffffffffff169050919050565b7f000000000000000000000000000000000000000000000000000000000000000081565b6000808273ffffffffffffffffffffffffffffffffffffffff1663feaf968c6040518163ffffffff1660e01b815260040160a060405180830381865afa158015610855573d6000803e3d6000fd5b505050506040513d601f19601f820116820180604052508101906108799190610cd3565b50505091505060006402540be400826108929190610d4e565b90506000670de0b6b3a764000082876108ab9190610dc6565b6108b59190610e37565b905080935050505092915050565b82805482825590600052602060002090810192821561093c579160200282015b8281111561093b5782518260006101000a81548173ffffffffffffffffffffffffffffffffffffffff021916908373ffffffffffffffffffffffffffffffffffffffff160217905550916020019190600101906108e3565b5b509050610949919061094d565b5090565b5b8082111561096657600081600090555060010161094e565b5090565b600080fd5b600073ffffffffffffffffffffffffffffffffffffffff82169050919050565b600061099a8261096f565b9050919050565b6109aa8161098f565b81146109b557600080fd5b50565b6000813590506109c7816109a1565b92915050565b6000602082840312156109e3576109e261096a565b5b60006109f1848285016109b8565b91505092915050565b6000819050919050565b610a0d816109fa565b82525050565b6000602082019050610a286000830184610a04565b92915050565b6000819050919050565b6000610a53610a4e610a498461096f565b610a2e565b61096f565b9050919050565b6000610a6582610a38565b9050919050565b6000610a7782610a5a565b9050919050565b610a8781610a6c565b82525050565b6000602082019050610aa26000830184610a7e565b92915050565b610ab1816109fa565b8114610abc57600080fd5b50565b600081359050610ace81610aa8565b92915050565b600060208284031215610aea57610ae961096a565b5b6000610af884828501610abf565b91505092915050565b610b0a8161098f565b82525050565b6000602082019050610b256000830184610b01565b92915050565b7f4e487b7100000000000000000000000000000000000000000000000000000000600052603260045260246000fd5b7f4e487b7100000000000000000000000000000000000000000000000000000000600052601160045260246000fd5b6000610b94826109fa565b91507fffffffffffffffffffffffffffffffffffffffffffffffffffffffffffffffff8203610bc657610bc5610b5a565b5b600182019050919050565b7f4e487b7100000000000000000000000000000000000000000000000000000000600052604160045260246000fd5b600081905092915050565b50565b6000610c1b600083610c00565b9150610c2682610c0b565b600082019050919050565b6000610c3c82610c0e565b9150819050919050565b600069ffffffffffffffffffff82169050919050565b610c6581610c46565b8114610c7057600080fd5b50565b600081519050610c8281610c5c565b92915050565b6000819050919050565b610c9b81610c88565b8114610ca657600080fd5b50565b600081519050610cb881610c92565b92915050565b600081519050610ccd81610aa8565b92915050565b600080600080600060a08688031215610cef57610cee61096a565b5b6000610cfd88828901610c73565b9550506020610d0e88828901610ca9565b9450506040610d1f88828901610cbe565b9350506060610d3088828901610cbe565b9250506080610d4188828901610c73565b9150509295509295909350565b6000610d5982610c88565b9150610d6483610c88565b9250828202610d7281610c88565b91507f80000000000000000000000000000000000000000000000000000000000000008414600084121615610daa57610da9610b5a565b5b8282058414831517610dbf57610dbe610b5a565b5b5092915050565b6000610dd1826109fa565b9150610ddc836109fa565b9250828202610dea816109fa565b91508282048414831517610e0157610e00610b5a565b5b5092915050565b7f4e487b7100000000000000000000000000000000000000000000000000000000600052601260045260246000fd5b6000610e42826109fa565b9150610e4d836109fa565b925082610e5d57610e5c610e08565b5b82820490509291505056fea26469706673582212201f021024075e609a4e0fd8de9835c52ff1a17857e7de10e73780bb933dc8afc864736f6c63430008130033",
  "devdoc": {
    "author": "KC",
    "details": "this contract implements price feed from the chainlink library",
    "kind": "dev",
    "methods": {},
    "title": "simple funding contract",
    "version": 1
  },
  "userdoc": {
    "kind": "user",
    "methods": {},
    "notice": "this contract receives funding and allowing contract owner to withdraw funds",
    "version": 1
  },
  "storageLayout": {
    "storage": [
      {
        "astId": 64,
        "contract": "contracts/FundMe.sol:FundMe",
        "label": "s_priceFeed",
        "offset": 0,
        "slot": "0",
        "type": "t_contract(AggregatorV3Interface)45"
      },
      {
        "astId": 72,
        "contract": "contracts/FundMe.sol:FundMe",
        "label": "s_funders",
        "offset": 0,
        "slot": "1",
        "type": "t_array(t_address)dyn_storage"
      },
      {
        "astId": 76,
        "contract": "contracts/FundMe.sol:FundMe",
        "label": "s_addressToAmountFunded",
        "offset": 0,
        "slot": "2",
        "type": "t_mapping(t_address,t_uint256)"
      }
    ],
    "types": {
      "t_address": {
        "encoding": "inplace",
        "label": "address",
        "numberOfBytes": "20"
      },
      "t_array(t_address)dyn_storage": {
        "base": "t_address",
        "encoding": "dynamic_array",
        "label": "address[]",
        "numberOfBytes": "32"
      },
      "t_contract(AggregatorV3Interface)45": {
        "encoding": "inplace",
        "label": "contract AggregatorV3Interface",
        "numberOfBytes": "20"
      },
      "t_mapping(t_address,t_uint256)": {
        "encoding": "mapping",
        "key": "t_address",
        "label": "mapping(address => uint256)",
        "numberOfBytes": "32",
        "value": "t_uint256"
      },
      "t_uint256": {
        "encoding": "inplace",
        "label": "uint256",
        "numberOfBytes": "32"
      }
    }
  }
}